{
  "contractName": "NameService",
  "abi": [
    {
      "anonymous": false,
      "inputs": [
        {
          "indexed": false,
          "internalType": "string",
          "name": "domain",
          "type": "string"
        },
        {
          "indexed": false,
          "internalType": "address",
          "name": "owner",
          "type": "address"
        }
      ],
      "name": "DomainRegistered",
      "type": "event"
    },
    {
      "anonymous": false,
      "inputs": [
        {
          "indexed": false,
          "internalType": "string",
          "name": "domain",
          "type": "string"
        },
        {
          "indexed": false,
          "internalType": "address",
          "name": "newOwner",
          "type": "address"
        }
      ],
      "name": "DomainUpdated",
      "type": "event"
    },
    {
      "inputs": [
        {
          "internalType": "string",
          "name": "domain",
          "type": "string"
        }
      ],
      "name": "registerDomain",
      "outputs": [],
      "stateMutability": "nonpayable",
      "type": "function"
    },
    {
      "inputs": [
        {
          "internalType": "string",
          "name": "domain",
          "type": "string"
        },
        {
          "internalType": "address",
          "name": "newOwner",
          "type": "address"
        }
      ],
      "name": "updateDomain",
      "outputs": [],
      "stateMutability": "nonpayable",
      "type": "function"
    },
    {
      "inputs": [
        {
          "internalType": "string",
          "name": "domain",
          "type": "string"
        }
      ],
      "name": "getOwnerOfDomain",
      "outputs": [
        {
          "internalType": "address",
          "name": "",
          "type": "address"
        }
      ],
      "stateMutability": "view",
      "type": "function",
      "constant": true
    },
    {
      "inputs": [
        {
          "internalType": "address",
          "name": "owner",
          "type": "address"
        }
      ],
      "name": "getDomainOfOwner",
      "outputs": [
        {
          "internalType": "string",
          "name": "",
          "type": "string"
        }
      ],
      "stateMutability": "view",
      "type": "function",
      "constant": true
    }
  ],
  "bytecode": "0x608060405234801561001057600080fd5b506107ed806100206000396000f3fe608060405234801561001057600080fd5b506004361061004c5760003560e01c8063816fa71b14610051578063a5cad08a14610081578063b5dd3c7d14610096578063be139aa5146100a9575b600080fd5b61006461005f366004610629565b6100c9565b6040516001600160a01b0390911681526020015b60405180910390f35b61009461008f366004610629565b6100f9565b005b6100946100a4366004610664565b610277565b6100bc6100b7366004610608565b610420565b60405161007891906106f8565b600080826040516100da91906106dc565b908152604051908190036020019020546001600160a01b031692915050565b60006001600160a01b031660008260405161011491906106dc565b908152604051908190036020019020546001600160a01b03161461017f5760405162461bcd60e51b815260206004820152601960248201527f446f6d61696e20616c726561647920726567697374657265640000000000000060448201526064015b60405180910390fd5b60008151116101d05760405162461bcd60e51b815260206004820152601b60248201527f446f6d61696e206e616d652063616e6e6f7420626520656d70747900000000006044820152606401610176565b336000826040516101e191906106dc565b9081526040805160209281900383019020805473ffffffffffffffffffffffffffffffffffffffff19166001600160a01b0394909416939093179092553360009081526001825291909120825161023a928401906104cc565b507f70f2ff07e8136617cdfb0433423063c9dd697c507560d7860cce09fa86874a12813360405161026c92919061070b565b60405180910390a150565b336001600160a01b031660008360405161029191906106dc565b908152604051908190036020019020546001600160a01b0316146102f75760405162461bcd60e51b815260206004820152601c60248201527f4f6e6c7920646f6d61696e206f776e65722063616e20757064617465000000006044820152606401610176565b60008251116103485760405162461bcd60e51b815260206004820152601b60248201527f446f6d61696e206e616d652063616e6e6f7420626520656d70747900000000006044820152606401610176565b8060008360405161035991906106dc565b9081526040805160209281900383018120805473ffffffffffffffffffffffffffffffffffffffff19166001600160a01b03959095169490941790935581830180825260008085523381526001909352912091516103b89291906104cc565b506001600160a01b038116600090815260016020908152604090912083516103e2928501906104cc565b507f868f5f914e26b486c50b15494d56c6b2f2f17f6514343909bd36a034c19452cc828260405161041492919061070b565b60405180910390a15050565b6001600160a01b038116600090815260016020526040902080546060919061044790610766565b80601f016020809104026020016040519081016040528092919081815260200182805461047390610766565b80156104c05780601f10610495576101008083540402835291602001916104c0565b820191906000526020600020905b8154815290600101906020018083116104a357829003601f168201915b50505050509050919050565b8280546104d890610766565b90600052602060002090601f0160209004810192826104fa5760008555610540565b82601f1061051357805160ff1916838001178555610540565b82800160010185558215610540579182015b82811115610540578251825591602001919060010190610525565b5061054c929150610550565b5090565b5b8082111561054c5760008155600101610551565b80356001600160a01b038116811461057c57600080fd5b919050565b600082601f830112610591578081fd5b813567ffffffffffffffff808211156105ac576105ac6107a1565b604051601f8301601f19908116603f011681019082821181831017156105d4576105d46107a1565b816040528381528660208588010111156105ec578485fd5b8360208701602083013792830160200193909352509392505050565b600060208284031215610619578081fd5b61062282610565565b9392505050565b60006020828403121561063a578081fd5b813567ffffffffffffffff811115610650578182fd5b61065c84828501610581565b949350505050565b60008060408385031215610676578081fd5b823567ffffffffffffffff81111561068c578182fd5b61069885828601610581565b9250506106a760208401610565565b90509250929050565b600081518084526106c8816020860160208601610736565b601f01601f19169290920160200192915050565b600082516106ee818460208701610736565b9190910192915050565b60208152600061062260208301846106b0565b60408152600061071e60408301856106b0565b90506001600160a01b03831660208301529392505050565b60005b83811015610751578181015183820152602001610739565b83811115610760576000848401525b50505050565b600181811c9082168061077a57607f821691505b6020821081141561079b57634e487b7160e01b600052602260045260246000fd5b50919050565b634e487b7160e01b600052604160045260246000fdfea264697066735822122012f75741cf6ab0ebfb2904dcbd90c796f7a7b025cbba14bbabfa068ce32770a864736f6c63430008040033",
  "immutableReferences": {},
  "source": "// SPDX-License-Identifier: MIT\n\npragma solidity ^0.8.0;\n\ncontract NameService {\n    mapping(string => address) private domainToAddress;\n    mapping(address => string) private addressToDomain;\n\n    event DomainRegistered(string domain, address owner);\n    event DomainUpdated(string domain, address newOwner);\n\n    function registerDomain(string memory domain) external {\n        require(domainToAddress[domain] == address(0), \"Domain already registered\");\n        require(bytes(domain).length > 0, \"Domain name cannot be empty\");\n\n        domainToAddress[domain] = msg.sender;\n        addressToDomain[msg.sender] = domain;\n\n        emit DomainRegistered(domain, msg.sender);\n    }\n\n    function updateDomain(string memory domain, address newOwner) external {\n        require(domainToAddress[domain] == msg.sender, \"Only domain owner can update\");\n        require(bytes(domain).length > 0, \"Domain name cannot be empty\");\n\n        domainToAddress[domain] = newOwner;\n        addressToDomain[msg.sender] = \"\";\n\n        addressToDomain[newOwner] = domain;\n\n        emit DomainUpdated(domain, newOwner);\n    }\n\n    function getOwnerOfDomain(string memory domain) external view returns (address) {\n        return domainToAddress[domain];\n    }\n\n    function getDomainOfOwner(address owner) external view returns (string memory) {\n        return addressToDomain[owner];\n    }\n}",
  "sourcePath": "/Users/romanshabanov/Desktop/nns-contract/contracts/NameService.sol",
  "compiler": {
    "name": "solc",
    "version": "0.8.4+commit.c7e474f2.Emscripten.clang"
  },
  "schemaVersion": "3.4.10",
  "updatedAt": "2023-05-27T15:18:14.224Z",
  "networkType": "ethereum",
  "devdoc": {
    "kind": "dev",
    "methods": {},
    "version": 1
  },
  "userdoc": {
    "kind": "user",
    "methods": {},
    "version": 1
  }
}